{
  "_format": "hh-sol-artifact-1",
  "contractName": "Staking",
  "sourceName": "contracts/Staking.sol",
  "abi": [
    {
      "inputs": [],
      "stateMutability": "nonpayable",
      "type": "constructor"
    },
    {
      "anonymous": false,
      "inputs": [
        {
          "indexed": true,
          "internalType": "address",
          "name": "addr",
          "type": "address"
        },
        {
          "indexed": false,
          "internalType": "uint256",
          "name": "amount",
          "type": "uint256"
        },
        {
          "indexed": false,
          "internalType": "uint256",
          "name": "time",
          "type": "uint256"
        }
      ],
      "name": "Claim",
      "type": "event"
    },
    {
      "anonymous": false,
      "inputs": [
        {
          "indexed": true,
          "internalType": "address",
          "name": "previousOwner",
          "type": "address"
        },
        {
          "indexed": true,
          "internalType": "address",
          "name": "newOwner",
          "type": "address"
        }
      ],
      "name": "OwnershipTransferred",
      "type": "event"
    },
    {
      "anonymous": false,
      "inputs": [
        {
          "indexed": true,
          "internalType": "address",
          "name": "addr",
          "type": "address"
        },
        {
          "indexed": false,
          "internalType": "uint256",
          "name": "amount",
          "type": "uint256"
        },
        {
          "indexed": false,
          "internalType": "uint256",
          "name": "time",
          "type": "uint256"
        }
      ],
      "name": "Reinvest",
      "type": "event"
    },
    {
      "anonymous": false,
      "inputs": [
        {
          "indexed": true,
          "internalType": "address",
          "name": "addr",
          "type": "address"
        },
        {
          "indexed": false,
          "internalType": "uint256",
          "name": "amount",
          "type": "uint256"
        },
        {
          "indexed": false,
          "internalType": "uint256",
          "name": "time",
          "type": "uint256"
        }
      ],
      "name": "Stake",
      "type": "event"
    },
    {
      "anonymous": false,
      "inputs": [
        {
          "indexed": true,
          "internalType": "address",
          "name": "addr",
          "type": "address"
        },
        {
          "indexed": false,
          "internalType": "uint256",
          "name": "amount",
          "type": "uint256"
        },
        {
          "indexed": false,
          "internalType": "uint256",
          "name": "time",
          "type": "uint256"
        }
      ],
      "name": "Unstake",
      "type": "event"
    },
    {
      "inputs": [
        {
          "internalType": "uint256",
          "name": "_principal",
          "type": "uint256"
        },
        {
          "internalType": "uint256",
          "name": "_rate",
          "type": "uint256"
        },
        {
          "internalType": "uint256",
          "name": "_age",
          "type": "uint256"
        }
      ],
      "name": "accrueInterest",
      "outputs": [
        {
          "internalType": "uint256",
          "name": "",
          "type": "uint256"
        }
      ],
      "stateMutability": "pure",
      "type": "function"
    },
    {
      "inputs": [
        {
          "internalType": "uint256",
          "name": "_apy",
          "type": "uint256"
        },
        {
          "internalType": "uint256",
          "name": "_lockPeriodInDays",
          "type": "uint256"
        },
        {
          "internalType": "uint256",
          "name": "_endDate",
          "type": "uint256"
        },
        {
          "internalType": "uint256",
          "name": "_hardCap",
          "type": "uint256"
        },
        {
          "internalType": "address",
          "name": "_token",
          "type": "address"
        }
      ],
      "name": "add",
      "outputs": [],
      "stateMutability": "nonpayable",
      "type": "function"
    },
    {
      "inputs": [
        {
          "internalType": "uint256",
          "name": "_pid",
          "type": "uint256"
        },
        {
          "internalType": "address",
          "name": "_addr",
          "type": "address"
        }
      ],
      "name": "calcMultiplier",
      "outputs": [
        {
          "internalType": "uint16",
          "name": "multi",
          "type": "uint16"
        }
      ],
      "stateMutability": "view",
      "type": "function"
    },
    {
      "inputs": [
        {
          "internalType": "uint256",
          "name": "_pid",
          "type": "uint256"
        },
        {
          "internalType": "address",
          "name": "_addr",
          "type": "address"
        }
      ],
      "name": "canClaim",
      "outputs": [
        {
          "internalType": "bool",
          "name": "",
          "type": "bool"
        }
      ],
      "stateMutability": "view",
      "type": "function"
    },
    {
      "inputs": [
        {
          "internalType": "uint256",
          "name": "_pid",
          "type": "uint256"
        }
      ],
      "name": "claim",
      "outputs": [
        {
          "internalType": "bool",
          "name": "",
          "type": "bool"
        }
      ],
      "stateMutability": "nonpayable",
      "type": "function"
    },
    {
      "inputs": [],
      "name": "claimAll",
      "outputs": [
        {
          "internalType": "bool",
          "name": "",
          "type": "bool"
        }
      ],
      "stateMutability": "nonpayable",
      "type": "function"
    },
    {
      "inputs": [],
      "name": "compounderContract",
      "outputs": [
        {
          "internalType": "address",
          "name": "",
          "type": "address"
        }
      ],
      "stateMutability": "view",
      "type": "function"
    },
    {
      "inputs": [],
      "name": "getPools",
      "outputs": [
        {
          "components": [
            {
              "internalType": "uint256",
              "name": "apy",
              "type": "uint256"
            },
            {
              "internalType": "uint256",
              "name": "lockPeriodInDays",
              "type": "uint256"
            },
            {
              "internalType": "uint256",
              "name": "totalDeposit",
              "type": "uint256"
            },
            {
              "internalType": "uint256",
              "name": "startDate",
              "type": "uint256"
            },
            {
              "internalType": "uint256",
              "name": "endDate",
              "type": "uint256"
            },
            {
              "internalType": "uint256",
              "name": "hardCap",
              "type": "uint256"
            },
            {
              "internalType": "address",
              "name": "token",
              "type": "address"
            }
          ],
          "internalType": "struct Staking.Pool[]",
          "name": "",
          "type": "tuple[]"
        }
      ],
      "stateMutability": "view",
      "type": "function"
    },
    {
      "inputs": [
        {
          "internalType": "uint256",
          "name": "_pid",
          "type": "uint256"
        },
        {
          "internalType": "address",
          "name": "_user",
          "type": "address"
        },
        {
          "internalType": "uint256",
          "name": "_rewardAmount",
          "type": "uint256"
        }
      ],
      "name": "handleNFTMultiplier",
      "outputs": [
        {
          "internalType": "uint256",
          "name": "",
          "type": "uint256"
        }
      ],
      "stateMutability": "nonpayable",
      "type": "function"
    },
    {
      "inputs": [
        {
          "internalType": "address",
          "name": "",
          "type": "address"
        }
      ],
      "name": "maxTransferAmount",
      "outputs": [
        {
          "internalType": "uint256",
          "name": "",
          "type": "uint256"
        }
      ],
      "stateMutability": "view",
      "type": "function"
    },
    {
      "inputs": [
        {
          "internalType": "uint256",
          "name": "",
          "type": "uint256"
        }
      ],
      "name": "nftInfo",
      "outputs": [
        {
          "internalType": "bool",
          "name": "active",
          "type": "bool"
        },
        {
          "internalType": "string",
          "name": "name",
          "type": "string"
        },
        {
          "internalType": "address",
          "name": "contractAdd",
          "type": "address"
        },
        {
          "internalType": "uint16",
          "name": "multiplier",
          "type": "uint16"
        },
        {
          "internalType": "uint16",
          "name": "startIdx",
          "type": "uint16"
        },
        {
          "internalType": "uint16",
          "name": "endIdx",
          "type": "uint16"
        }
      ],
      "stateMutability": "view",
      "type": "function"
    },
    {
      "inputs": [],
      "name": "owner",
      "outputs": [
        {
          "internalType": "address",
          "name": "",
          "type": "address"
        }
      ],
      "stateMutability": "view",
      "type": "function"
    },
    {
      "inputs": [
        {
          "internalType": "address",
          "name": "_addr",
          "type": "address"
        },
        {
          "internalType": "uint256",
          "name": "_pid",
          "type": "uint256"
        }
      ],
      "name": "ownsCorrectNFT",
      "outputs": [
        {
          "internalType": "bool",
          "name": "",
          "type": "bool"
        }
      ],
      "stateMutability": "view",
      "type": "function"
    },
    {
      "inputs": [
        {
          "internalType": "uint256",
          "name": "_pid",
          "type": "uint256"
        },
        {
          "internalType": "address",
          "name": "_addr",
          "type": "address"
        }
      ],
      "name": "payout",
      "outputs": [
        {
          "internalType": "uint256",
          "name": "value",
          "type": "uint256"
        }
      ],
      "stateMutability": "view",
      "type": "function"
    },
    {
      "inputs": [
        {
          "internalType": "uint256",
          "name": "",
          "type": "uint256"
        }
      ],
      "name": "poolInfo",
      "outputs": [
        {
          "internalType": "uint256",
          "name": "apy",
          "type": "uint256"
        },
        {
          "internalType": "uint256",
          "name": "lockPeriodInDays",
          "type": "uint256"
        },
        {
          "internalType": "uint256",
          "name": "totalDeposit",
          "type": "uint256"
        },
        {
          "internalType": "uint256",
          "name": "startDate",
          "type": "uint256"
        },
        {
          "internalType": "uint256",
          "name": "endDate",
          "type": "uint256"
        },
        {
          "internalType": "uint256",
          "name": "hardCap",
          "type": "uint256"
        },
        {
          "internalType": "address",
          "name": "token",
          "type": "address"
        }
      ],
      "stateMutability": "view",
      "type": "function"
    },
    {
      "inputs": [],
      "name": "poolLength",
      "outputs": [
        {
          "internalType": "uint256",
          "name": "",
          "type": "uint256"
        }
      ],
      "stateMutability": "view",
      "type": "function"
    },
    {
      "inputs": [
        {
          "internalType": "uint256",
          "name": "_pid",
          "type": "uint256"
        }
      ],
      "name": "reinvest",
      "outputs": [
        {
          "internalType": "bool",
          "name": "",
          "type": "bool"
        }
      ],
      "stateMutability": "nonpayable",
      "type": "function"
    },
    {
      "inputs": [],
      "name": "reinvestAll",
      "outputs": [
        {
          "internalType": "bool",
          "name": "",
          "type": "bool"
        }
      ],
      "stateMutability": "nonpayable",
      "type": "function"
    },
    {
      "inputs": [],
      "name": "renounceOwnership",
      "outputs": [],
      "stateMutability": "nonpayable",
      "type": "function"
    },
    {
      "inputs": [
        {
          "internalType": "uint256",
          "name": "_pid",
          "type": "uint256"
        },
        {
          "internalType": "uint256",
          "name": "_apy",
          "type": "uint256"
        },
        {
          "internalType": "uint256",
          "name": "_lockPeriodInDays",
          "type": "uint256"
        },
        {
          "internalType": "uint256",
          "name": "_endDate",
          "type": "uint256"
        },
        {
          "internalType": "uint256",
          "name": "_hardCap",
          "type": "uint256"
        },
        {
          "internalType": "uint256",
          "name": "_maxTransfer",
          "type": "uint256"
        },
        {
          "internalType": "address",
          "name": "_token",
          "type": "address"
        }
      ],
      "name": "set",
      "outputs": [],
      "stateMutability": "nonpayable",
      "type": "function"
    },
    {
      "inputs": [
        {
          "internalType": "uint256",
          "name": "_pid",
          "type": "uint256"
        },
        {
          "internalType": "string",
          "name": "_name",
          "type": "string"
        },
        {
          "internalType": "address",
          "name": "_contractAdd",
          "type": "address"
        },
        {
          "internalType": "bool",
          "name": "_isUsed",
          "type": "bool"
        },
        {
          "internalType": "uint16",
          "name": "_multiplier",
          "type": "uint16"
        },
        {
          "internalType": "uint16",
          "name": "_startIdx",
          "type": "uint16"
        },
        {
          "internalType": "uint16",
          "name": "_endIdx",
          "type": "uint16"
        }
      ],
      "name": "setNFT",
      "outputs": [],
      "stateMutability": "nonpayable",
      "type": "function"
    },
    {
      "inputs": [
        {
          "internalType": "uint256",
          "name": "_pid",
          "type": "uint256"
        },
        {
          "internalType": "uint256",
          "name": "_amount",
          "type": "uint256"
        }
      ],
      "name": "stake",
      "outputs": [
        {
          "internalType": "bool",
          "name": "",
          "type": "bool"
        }
      ],
      "stateMutability": "nonpayable",
      "type": "function"
    },
    {
      "inputs": [
        {
          "internalType": "address",
          "name": "newOwner",
          "type": "address"
        }
      ],
      "name": "transferOwnership",
      "outputs": [],
      "stateMutability": "nonpayable",
      "type": "function"
    },
    {
      "inputs": [
        {
          "internalType": "address",
          "name": "_addr",
          "type": "address"
        },
        {
          "internalType": "uint256",
          "name": "_amount",
          "type": "uint256"
        }
      ],
      "name": "transferToken",
      "outputs": [
        {
          "internalType": "bool",
          "name": "",
          "type": "bool"
        }
      ],
      "stateMutability": "nonpayable",
      "type": "function"
    },
    {
      "inputs": [
        {
          "internalType": "uint256",
          "name": "_pid",
          "type": "uint256"
        },
        {
          "internalType": "uint256",
          "name": "_amount",
          "type": "uint256"
        }
      ],
      "name": "unStake",
      "outputs": [
        {
          "internalType": "bool",
          "name": "",
          "type": "bool"
        }
      ],
      "stateMutability": "nonpayable",
      "type": "function"
    },
    {
      "inputs": [
        {
          "internalType": "address",
          "name": "_compounder",
          "type": "address"
        }
      ],
      "name": "updateCompounder",
      "outputs": [],
      "stateMutability": "nonpayable",
      "type": "function"
    },
    {
      "inputs": [
        {
          "internalType": "uint8",
          "name": "_feePercent",
          "type": "uint8"
        },
        {
          "internalType": "address",
          "name": "_feeWallet",
          "type": "address"
        }
      ],
      "name": "updateFeeValues",
      "outputs": [],
      "stateMutability": "nonpayable",
      "type": "function"
    },
    {
      "inputs": [
        {
          "internalType": "uint256",
          "name": "",
          "type": "uint256"
        },
        {
          "internalType": "address",
          "name": "",
          "type": "address"
        }
      ],
      "name": "users",
      "outputs": [
        {
          "internalType": "uint256",
          "name": "totalInvested",
          "type": "uint256"
        },
        {
          "internalType": "uint256",
          "name": "totalWithdrawn",
          "type": "uint256"
        },
        {
          "internalType": "uint256",
          "name": "lastPayout",
          "type": "uint256"
        },
        {
          "internalType": "uint256",
          "name": "depositTime",
          "type": "uint256"
        },
        {
          "internalType": "uint256",
          "name": "totalClaimed",
          "type": "uint256"
        }
      ],
      "stateMutability": "view",
      "type": "function"
    },
    {
      "inputs": [
        {
          "internalType": "uint256",
          "name": "_rateWad",
          "type": "uint256"
        }
      ],
      "name": "yearlyRateToRay",
      "outputs": [
        {
          "internalType": "uint256",
          "name": "",
          "type": "uint256"
        }
      ],
      "stateMutability": "pure",
      "type": "function"
    },
    {
      "stateMutability": "payable",
      "type": "receive"
    }
  ],
  "bytecode": "0x60806040523480156200001157600080fd5b5062000032620000266200009560201b60201c565b6200009d60201b60201c565b33600260006101000a81548173ffffffffffffffffffffffffffffffffffffffff021916908373ffffffffffffffffffffffffffffffffffffffff1602179055506005600260146101000a81548160ff021916908360ff16021790555062000161565b600033905090565b60008060009054906101000a900473ffffffffffffffffffffffffffffffffffffffff169050816000806101000a81548173ffffffffffffffffffffffffffffffffffffffff021916908373ffffffffffffffffffffffffffffffffffffffff1602179055508173ffffffffffffffffffffffffffffffffffffffff168173ffffffffffffffffffffffffffffffffffffffff167f8be0079c531659141344cd1fd0a4f28419497f9722a3daafe3b4186f6b6457e060405160405180910390a35050565b6142c580620001716000396000f3fe6080604052600436106101c55760003560e01c8063715018a6116100f7578063b7f08de411610095578063d1058e5911610064578063d1058e591461072a578063de251fb614610755578063f2fde38b14610792578063f686f358146107bb57610205565b8063b7f08de414610658578063b9d02df414610681578063ba62b8a7146106c2578063be95e01a146106ed57610205565b80638da5cb5b116100d15780638da5cb5b1461058a5780639a3514f7146105b55780639e80aa14146105f25780639f9a81c21461061b57610205565b8063715018a6146104f95780637b0472f01461051057806383b4918b1461054d57610205565b806327c8129011610164578063372caeb81161013e578063372caeb81461042b578063379607f5146104685780633e1a8906146104a5578063673a2a1f146104ce57610205565b806327c812901461038857806329a2e8e6146103b15780633001973a146103ee57610205565b80630d1a0c3b116101a05780630d1a0c3b1461029b5780631072cbea146102c65780631526fe27146103035780631f8bc7901461034657610205565b8062b007791461020a578063060614cb14610233578063081e3eda1461027057610205565b36610205576040517f08c379a00000000000000000000000000000000000000000000000000000000081526004016101fc90612ef5565b60405180910390fd5b600080fd5b34801561021657600080fd5b50610231600480360381019061022c9190612f7d565b6107f8565b005b34801561023f57600080fd5b5061025a60048036038101906102559190612fe0565b610844565b604051610267919061301c565b60405180910390f35b34801561027c57600080fd5b50610285610884565b604051610292919061301c565b60405180910390f35b3480156102a757600080fd5b506102b0610891565b6040516102bd9190613052565b60405180910390f35b3480156102d257600080fd5b506102ed60048036038101906102e8919061306d565b6108cb565b6040516102fa9190613052565b60405180910390f35b34801561030f57600080fd5b5061032a60048036038101906103259190612fe0565b61096e565b60405161033d97969594939291906130bc565b60405180910390f35b34801561035257600080fd5b5061036d60048036038101906103689190612fe0565b6109e0565b60405161037f969594939291906131d0565b60405180910390f35b34801561039457600080fd5b506103af60048036038101906103aa9190613238565b610b0b565b005b3480156103bd57600080fd5b506103d860048036038101906103d391906132da565b610cb5565b6040516103e59190613052565b60405180910390f35b3480156103fa57600080fd5b50610415600480360381019061041091906132da565b610dcf565b604051610422919061331a565b60405180910390f35b34801561043757600080fd5b50610452600480360381019061044d9190613335565b610ff2565b60405161045f9190613052565b60405180910390f35b34801561047457600080fd5b5061048f600480360381019061048a9190612fe0565b6111d0565b60405161049c9190613052565b60405180910390f35b3480156104b157600080fd5b506104cc60048036038101906104c79190613375565b61122e565b005b3480156104da57600080fd5b506104e361153e565b6040516104f0919061354b565b60405180910390f35b34801561050557600080fd5b5061050e61162f565b005b34801561051c57600080fd5b5061053760048036038101906105329190613335565b611643565b6040516105449190613052565b60405180910390f35b34801561055957600080fd5b50610574600480360381019061056f9190612fe0565b6118b5565b6040516105819190613052565b60405180910390f35b34801561059657600080fd5b5061059f611935565b6040516105ac919061356d565b60405180910390f35b3480156105c157600080fd5b506105dc60048036038101906105d7919061306d565b61195e565b6040516105e99190613052565b60405180910390f35b3480156105fe57600080fd5b5061061960048036038101906106149190613645565b611b97565b005b34801561062757600080fd5b50610642600480360381019061063d9190612f7d565b611ca0565b60405161064f919061301c565b60405180910390f35b34801561066457600080fd5b5061067f600480360381019061067a9190613740565b611cb8565b005b34801561068d57600080fd5b506106a860048036038101906106a391906132da565b611d20565b6040516106b9959493929190613780565b60405180910390f35b3480156106ce57600080fd5b506106d7611d63565b6040516106e4919061356d565b60405180910390f35b3480156106f957600080fd5b50610714600480360381019061070f91906132da565b611d89565b604051610721919061301c565b60405180910390f35b34801561073657600080fd5b5061073f611efb565b60405161074c9190613052565b60405180910390f35b34801561076157600080fd5b5061077c600480360381019061077791906137d3565b611f45565b604051610789919061301c565b60405180910390f35b34801561079e57600080fd5b506107b960048036038101906107b49190612f7d565b611f63565b005b3480156107c757600080fd5b506107e260048036038101906107dd9190613826565b611fe7565b6040516107ef919061301c565b60405180910390f35b61080061212d565b80600160006101000a81548173ffffffffffffffffffffffffffffffffffffffff021916908373ffffffffffffffffffffffffffffffffffffffff16021790555050565b600061087d61085a670de0b6b3a76400006121ab565b610878610866856121ab565b6108736301e133806121c2565b6121e1565b612221565b9050919050565b6000600580549050905090565b600080600580549050905060005b818110156108c2576108b0816118b5565b50806108bb906138a8565b905061089f565b50600191505090565b60006108d561212d565b600083905060008173ffffffffffffffffffffffffffffffffffffffff1663a9059cbb610900611935565b866040518363ffffffff1660e01b815260040161091e9291906138f1565b6020604051808303816000875af115801561093d573d6000803e3d6000fd5b505050506040513d601f19601f82011682018060405250810190610961919061392f565b9050809250505092915050565b6005818154811061097e57600080fd5b90600052602060002090600702016000915090508060000154908060010154908060020154908060030154908060040154908060050154908060060160009054906101000a900473ffffffffffffffffffffffffffffffffffffffff16905087565b600681815481106109f057600080fd5b90600052602060002090600302016000915090508060000160009054906101000a900460ff1690806001018054610a269061398b565b80601f0160208091040260200160405190810160405280929190818152602001828054610a529061398b565b8015610a9f5780601f10610a7457610100808354040283529160200191610a9f565b820191906000526020600020905b815481529060010190602001808311610a8257829003601f168201915b5050505050908060020160009054906101000a900473ffffffffffffffffffffffffffffffffffffffff16908060020160149054906101000a900461ffff16908060020160169054906101000a900461ffff16908060020160189054906101000a900461ffff16905086565b610b1361212d565b610b1b610884565b8710610b5c576040517f08c379a0000000000000000000000000000000000000000000000000000000008152600401610b5390613a09565b60405180910390fd5b8560058881548110610b7157610b70613a29565b5b9060005260206000209060070201600001819055508460058881548110610b9b57610b9a613a29565b5b9060005260206000209060070201600101819055508360058881548110610bc557610bc4613a29565b5b9060005260206000209060070201600401819055508260058881548110610bef57610bee613a29565b5b9060005260206000209060070201600501819055508060058881548110610c1957610c18613a29565b5b906000526020600020906007020160060160006101000a81548173ffffffffffffffffffffffffffffffffffffffff021916908373ffffffffffffffffffffffffffffffffffffffff16021790555081600460008373ffffffffffffffffffffffffffffffffffffffff1673ffffffffffffffffffffffffffffffffffffffff1681526020019081526020016000208190555050505050505050565b6000806003600085815260200190815260200160002060008473ffffffffffffffffffffffffffffffffffffffff1673ffffffffffffffffffffffffffffffffffffffff1681526020019081526020016000209050600060058581548110610d2057610d1f613a29565b5b90600052602060002090600702019050600160009054906101000a900473ffffffffffffffffffffffffffffffffffffffff1673ffffffffffffffffffffffffffffffffffffffff163373ffffffffffffffffffffffffffffffffffffffff161415610d9157600192505050610dc9565b610dc1610dae62015180836001015461227a90919063ffffffff16565b836003015461229090919063ffffffff16565b421015925050505b92915050565b60008060068481548110610de657610de5613a29565b5b90600052602060002090600302016040518060c00160405290816000820160009054906101000a900460ff16151515158152602001600182018054610e2a9061398b565b80601f0160208091040260200160405190810160405280929190818152602001828054610e569061398b565b8015610ea35780601f10610e7857610100808354040283529160200191610ea3565b820191906000526020600020905b815481529060010190602001808311610e8657829003601f168201915b505050505081526020016002820160009054906101000a900473ffffffffffffffffffffffffffffffffffffffff1673ffffffffffffffffffffffffffffffffffffffff1673ffffffffffffffffffffffffffffffffffffffff1681526020016002820160149054906101000a900461ffff1661ffff1661ffff1681526020016002820160169054906101000a900461ffff1661ffff1661ffff1681526020016002820160189054906101000a900461ffff1661ffff1661ffff1681525050905080600001518015610f7b5750610f7a838561195e565b5b8015610fd55750600160009054906101000a900473ffffffffffffffffffffffffffffffffffffffff1673ffffffffffffffffffffffffffffffffffffffff168373ffffffffffffffffffffffffffffffffffffffff1614155b15610fe65780606001519150610feb565b600a91505b5092915050565b6000806003600085815260200190815260200160002060003373ffffffffffffffffffffffffffffffffffffffff1673ffffffffffffffffffffffffffffffffffffffff168152602001908152602001600020905060006005858154811061105d5761105c613a29565b5b9060005260206000209060070201905083826000015410156110b4576040517f08c379a00000000000000000000000000000000000000000000000000000000081526004016110ab90613aa4565b60405180910390fd5b6110be8533610cb5565b6110fd576040517f08c379a00000000000000000000000000000000000000000000000000000000081526004016110f490613b10565b60405180910390fd5b61110785336122a6565b6111368160060160009054906101000a900473ffffffffffffffffffffffffffffffffffffffff163386612506565b61114d84826002015461274290919063ffffffff16565b816002018190555061116c84836000015461274290919063ffffffff16565b82600001819055503373ffffffffffffffffffffffffffffffffffffffff167ff960dbf9e5d0682f7a298ed974e33a28b4464914b7a2bfac12ae419a9afeb28085426040516111bc929190613b30565b60405180910390a260019250505092915050565b60006111dc8233610cb5565b61121b576040517f08c379a000000000000000000000000000000000000000000000000000000000815260040161121290613ba5565b60405180910390fd5b61122582336122a6565b60019050919050565b61123661212d565b60056040518060e00160405280878152602001868152602001600081526020014281526020018581526020018481526020018373ffffffffffffffffffffffffffffffffffffffff168152509080600181540180825580915050600190039060005260206000209060070201600090919091909150600082015181600001556020820151816001015560408201518160020155606082015181600301556080820151816004015560a0820151816005015560c08201518160060160006101000a81548173ffffffffffffffffffffffffffffffffffffffff021916908373ffffffffffffffffffffffffffffffffffffffff160217905550505060066040518060c00160405280600015158152602001604051806020016040528060008152508152602001600073ffffffffffffffffffffffffffffffffffffffff168152602001600a61ffff168152602001600061ffff168152602001600061ffff16815250908060018154018082558091505060019003906000526020600020906003020160009091909190915060008201518160000160006101000a81548160ff02191690831515021790555060208201518160010190805190602001906113fc929190612d6f565b5060408201518160020160006101000a81548173ffffffffffffffffffffffffffffffffffffffff021916908373ffffffffffffffffffffffffffffffffffffffff16021790555060608201518160020160146101000a81548161ffff021916908361ffff16021790555060808201518160020160166101000a81548161ffff021916908361ffff16021790555060a08201518160020160186101000a81548161ffff021916908361ffff1602179055505050600019600460008373ffffffffffffffffffffffffffffffffffffffff1673ffffffffffffffffffffffffffffffffffffffff168152602001908152602001600020819055506115376001611502610884565b61150c9190613bc5565b600160009054906101000a900473ffffffffffffffffffffffffffffffffffffffff16600080612758565b5050505050565b60606005805480602002602001604051908101604052809291908181526020016000905b8282101561162657838290600052602060002090600702016040518060e00160405290816000820154815260200160018201548152602001600282015481526020016003820154815260200160048201548152602001600582015481526020016006820160009054906101000a900473ffffffffffffffffffffffffffffffffffffffff1673ffffffffffffffffffffffffffffffffffffffff1673ffffffffffffffffffffffffffffffffffffffff168152505081526020019060010190611562565b50505050905090565b61163761212d565b61164160006129b1565b565b6000806005848154811061165a57611659613a29565b5b90600052602060002090600702016040518060e00160405290816000820154815260200160018201548152602001600282015481526020016003820154815260200160048201548152602001600582015481526020016006820160009054906101000a900473ffffffffffffffffffffffffffffffffffffffff1673ffffffffffffffffffffffffffffffffffffffff1673ffffffffffffffffffffffffffffffffffffffff1681525050905060008160c001519050838173ffffffffffffffffffffffffffffffffffffffff1663dd62ed3e33306040518363ffffffff1660e01b815260040161174c929190613bf9565b602060405180830381865afa158015611769573d6000803e3d6000fd5b505050506040513d601f19601f8201168201806040525081019061178d9190613c37565b10156117ce576040517f08c379a00000000000000000000000000000000000000000000000000000000081526004016117c590613cb0565b60405180910390fd5b60008173ffffffffffffffffffffffffffffffffffffffff166323b872dd3330886040518463ffffffff1660e01b815260040161180d93929190613cd0565b6020604051808303816000875af115801561182c573d6000803e3d6000fd5b505050506040513d601f19601f82011682018060405250810190611850919061392f565b905080611892576040517f08c379a000000000000000000000000000000000000000000000000000000000815260040161188990613d53565b60405180910390fd5b61189b866118b5565b506118a98633876000612758565b80935050505092915050565b6000806118c28333611d89565b9050600081111561192b576118da8333836001612758565b3373ffffffffffffffffffffffffffffffffffffffff167fc003f45bc224d116b6d079100d4ab57a5b9633244c47a5a92a176c5b79a85f288242604051611922929190613b30565b60405180910390a25b6001915050919050565b60008060009054906101000a900473ffffffffffffffffffffffffffffffffffffffff16905090565b6000806006838154811061197557611974613a29565b5b90600052602060002090600302016040518060c00160405290816000820160009054906101000a900460ff161515151581526020016001820180546119b99061398b565b80601f01602080910402602001604051908101604052809291908181526020018280546119e59061398b565b8015611a325780601f10611a0757610100808354040283529160200191611a32565b820191906000526020600020905b815481529060010190602001808311611a1557829003601f168201915b505050505081526020016002820160009054906101000a900473ffffffffffffffffffffffffffffffffffffffff1673ffffffffffffffffffffffffffffffffffffffff1673ffffffffffffffffffffffffffffffffffffffff1681526020016002820160149054906101000a900461ffff1661ffff1661ffff1681526020016002820160169054906101000a900461ffff1661ffff1661ffff1681526020016002820160189054906101000a900461ffff1661ffff1661ffff168152505090506000611b03826040015186612a75565b905060005b8151811015611b8957826080015161ffff16828281518110611b2d57611b2c613a29565b5b602002602001015110158015611b6557508260a0015161ffff16828281518110611b5a57611b59613a29565b5b602002602001015111155b15611b765760019350505050611b91565b8080611b81906138a8565b915050611b08565b506000925050505b92915050565b611b9f61212d565b600060068981548110611bb557611bb4613a29565b5b906000526020600020906003020190508787826001019190611bd8929190612df5565b50858160020160006101000a81548173ffffffffffffffffffffffffffffffffffffffff021916908373ffffffffffffffffffffffffffffffffffffffff160217905550848160000160006101000a81548160ff021916908315150217905550838160020160146101000a81548161ffff021916908361ffff160217905550828160020160166101000a81548161ffff021916908361ffff160217905550818160020160186101000a81548161ffff021916908361ffff160217905550505050505050505050565b60046020528060005260406000206000915090505481565b611cc061212d565b81600260146101000a81548160ff021916908360ff16021790555080600260006101000a81548173ffffffffffffffffffffffffffffffffffffffff021916908373ffffffffffffffffffffffffffffffffffffffff1602179055505050565b6003602052816000526040600020602052806000526040600020600091509150508060000154908060010154908060020154908060030154908060040154905085565b600160009054906101000a900473ffffffffffffffffffffffffffffffffffffffff1681565b6000806003600085815260200190815260200160002060008473ffffffffffffffffffffffffffffffffffffffff1673ffffffffffffffffffffffffffffffffffffffff1681526020019081526020016000209050600060058581548110611df457611df3613a29565b5b9060005260206000209060070201905060008260030154836002015411611e1f578260030154611e25565b82600201545b9050600082600401544211611e3a5742611e40565b82600401545b90506000611e4e8888610dcf565b61ffff16905081831015611ec8576000611e8b6103e8670de0b6b3a76400008760000154611e7c9190613d73565b611e869190613dfc565b610844565b9050611ec48660000154611eb6886000015484611eb1898961274290919063ffffffff16565b611f45565b61274290919063ffffffff16565b9650505b611eee600a611ee0838961227a90919063ffffffff16565b612c0d90919063ffffffff16565b9550505050505092915050565b600080600580549050905060005b81811015611f3c57611f1b8133610cb5565b15611f2b57611f2a81336122a6565b5b80611f35906138a8565b9050611f09565b50600191505090565b6000611f5a84611f558585612c23565b612cae565b90509392505050565b611f6b61212d565b600073ffffffffffffffffffffffffffffffffffffffff168173ffffffffffffffffffffffffffffffffffffffff161415611fdb576040517f08c379a0000000000000000000000000000000000000000000000000000000008152600401611fd290613e9f565b60405180910390fd5b611fe4816129b1565b50565b6000600160009054906101000a900473ffffffffffffffffffffffffffffffffffffffff1673ffffffffffffffffffffffffffffffffffffffff163373ffffffffffffffffffffffffffffffffffffffff1614612079576040517f08c379a000000000000000000000000000000000000000000000000000000000815260040161207090613f0b565b60405180910390fd5b60006120858585610dcf565b905060006120c5846120b7600a6120a98661ffff168961227a90919063ffffffff16565b612c0d90919063ffffffff16565b61274290919063ffffffff16565b9050600081111561212157612120600587815481106120e7576120e6613a29565b5b906000526020600020906007020160060160009054906101000a900473ffffffffffffffffffffffffffffffffffffffff168683612506565b5b80925050509392505050565b612135612cfa565b73ffffffffffffffffffffffffffffffffffffffff16612153611935565b73ffffffffffffffffffffffffffffffffffffffff16146121a9576040517f08c379a00000000000000000000000000000000000000000000000000000000081526004016121a090613f77565b60405180910390fd5b565b60006121bb82633b9aca00612d02565b9050919050565b60006121da826b033b2e3c9fd0803ce8000000612d02565b9050919050565b60008161220f6121fd856b033b2e3c9fd0803ce8000000612d02565b60028561220a9190613dfc565b612221565b6122199190613dfc565b905092915050565b60008282846122309190613f97565b9150811015612274576040517f08c379a000000000000000000000000000000000000000000000000000000000815260040161226b90614039565b60405180910390fd5b92915050565b600081836122889190613d73565b905092915050565b6000818361229e9190613f97565b905092915050565b60006003600084815260200190815260200160002060008373ffffffffffffffffffffffffffffffffffffffff1673ffffffffffffffffffffffffffffffffffffffff16815260200190815260200160002090506000600584815481106123105761230f613a29565b5b90600052602060002090600702016040518060e00160405290816000820154815260200160018201548152602001600282015481526020016003820154815260200160048201548152602001600582015481526020016006820160009054906101000a900473ffffffffffffffffffffffffffffffffffffffff1673ffffffffffffffffffffffffffffffffffffffff1673ffffffffffffffffffffffffffffffffffffffff1681525050905060006123c98585611d89565b905060008111156124af576123eb81846001015461229090919063ffffffff16565b8360010181905550600061242e6103e8612420600260149054906101000a900460ff1660ff168561227a90919063ffffffff16565b612c0d90919063ffffffff16565b90506124618360c00151600260009054906101000a900473ffffffffffffffffffffffffffffffffffffffff1683612506565b612474818361274290919063ffffffff16565b91506124858360c001518684612506565b4284600201819055506124a582856004015461229090919063ffffffff16565b8460040181905550505b8373ffffffffffffffffffffffffffffffffffffffff167f34fcbac0073d7c3d388e51312faf357774904998eeb8fca628b9e6f65ee1cbf782426040516124f7929190613b30565b60405180910390a25050505050565b600083905060008173ffffffffffffffffffffffffffffffffffffffff166370a08231306040518263ffffffff1660e01b8152600401612546919061356d565b602060405180830381865afa158015612563573d6000803e3d6000fd5b505050506040513d601f19601f820116820180604052508101906125879190613c37565b9050828110156125cc576040517f08c379a00000000000000000000000000000000000000000000000000000000081526004016125c3906140a5565b60405180910390fd5b6000600460008773ffffffffffffffffffffffffffffffffffffffff1673ffffffffffffffffffffffffffffffffffffffff16815260200190815260200160002054905060008490505b818111156126b0578373ffffffffffffffffffffffffffffffffffffffff1663a9059cbb87846040518363ffffffff1660e01b81526004016126599291906138f1565b6020604051808303816000875af1158015612678573d6000803e3d6000fd5b505050506040513d601f19601f8201168201806040525081019061269c919061392f565b5081816126a99190613bc5565b9050612616565b6000811115612739578373ffffffffffffffffffffffffffffffffffffffff1663a9059cbb87836040518363ffffffff1660e01b81526004016126f49291906138f1565b6020604051808303816000875af1158015612713573d6000803e3d6000fd5b505050506040513d601f19601f82011682018060405250810190612737919061392f565b505b50505050505050565b600081836127509190613bc5565b905092915050565b60006003600086815260200190815260200160002060008573ffffffffffffffffffffffffffffffffffffffff1673ffffffffffffffffffffffffffffffffffffffff16815260200190815260200160002090506000600586815481106127c2576127c1613a29565b5b906000526020600020906007020190508215801561282e5750600160009054906101000a900473ffffffffffffffffffffffffffffffffffffffff1673ffffffffffffffffffffffffffffffffffffffff168573ffffffffffffffffffffffffffffffffffffffff1614155b1561283d574282600301819055505b806005015461285985836002015461229090919063ffffffff16565b111561289a576040517f08c379a000000000000000000000000000000000000000000000000000000000815260040161289190614111565b60405180910390fd5b60006128cc6128b962015180846001015461227a90919063ffffffff16565b836004015461274290919063ffffffff16565b905080421115612911576040517f08c379a0000000000000000000000000000000000000000000000000000000008152600401612908906141a3565b60405180910390fd5b61292885846000015461229090919063ffffffff16565b836000018190555061294785836002015461229090919063ffffffff16565b82600201819055504283600201819055508573ffffffffffffffffffffffffffffffffffffffff167f5af417134f72a9d41143ace85b0a26dce6f550f894f2cbc1eeee8810603d91b686426040516129a0929190613b30565b60405180910390a250505050505050565b60008060009054906101000a900473ffffffffffffffffffffffffffffffffffffffff169050816000806101000a81548173ffffffffffffffffffffffffffffffffffffffff021916908373ffffffffffffffffffffffffffffffffffffffff1602179055508173ffffffffffffffffffffffffffffffffffffffff168173ffffffffffffffffffffffffffffffffffffffff167f8be0079c531659141344cd1fd0a4f28419497f9722a3daafe3b4186f6b6457e060405160405180910390a35050565b6060600083905060008173ffffffffffffffffffffffffffffffffffffffff166370a08231856040518263ffffffff1660e01b8152600401612ab7919061356d565b602060405180830381865afa158015612ad4573d6000803e3d6000fd5b505050506040513d601f19601f82011682018060405250810190612af89190613c37565b905060008167ffffffffffffffff811115612b1657612b156141c3565b5b604051908082528060200260200182016040528015612b445781602001602082028036833780820191505090505b50905060005b82811015612c00578373ffffffffffffffffffffffffffffffffffffffff16632f745c5987836040518363ffffffff1660e01b8152600401612b8d9291906138f1565b602060405180830381865afa158015612baa573d6000803e3d6000fd5b505050506040513d601f19601f82011682018060405250810190612bce9190613c37565b828281518110612be157612be0613a29565b5b6020026020010181815250508080612bf8906138a8565b915050612b4a565b5080935050505092915050565b60008183612c1b9190613dfc565b905092915050565b600080600283612c3391906141f2565b1415612c4b576b033b2e3c9fd0803ce8000000612c4d565b825b9050600282612c5c9190613dfc565b91505b60008214612ca857612c718384612cae565b92506000600283612c8291906141f2565b14612c9457612c918184612cae565b90505b600282612ca19190613dfc565b9150612c5f565b92915050565b60006b033b2e3c9fd0803ce8000000612ce8612cca8585612d02565b60026b033b2e3c9fd0803ce8000000612ce39190613dfc565b612221565b612cf29190613dfc565b905092915050565b600033905090565b600080821480612d2a575082828385612d1b9190613d73565b925082612d289190613dfc565b145b612d69576040517f08c379a0000000000000000000000000000000000000000000000000000000008152600401612d609061426f565b60405180910390fd5b92915050565b828054612d7b9061398b565b90600052602060002090601f016020900481019282612d9d5760008555612de4565b82601f10612db657805160ff1916838001178555612de4565b82800160010185558215612de4579182015b82811115612de3578251825591602001919060010190612dc8565b5b509050612df19190612e7b565b5090565b828054612e019061398b565b90600052602060002090601f016020900481019282612e235760008555612e6a565b82601f10612e3c57803560ff1916838001178555612e6a565b82800160010185558215612e6a579182015b82811115612e69578235825591602001919060010190612e4e565b5b509050612e779190612e7b565b5090565b5b80821115612e94576000816000905550600101612e7c565b5090565b600082825260208201905092915050565b7f424e42206465706f736974206e6f7420737570706f7274656400000000000000600082015250565b6000612edf601983612e98565b9150612eea82612ea9565b602082019050919050565b60006020820190508181036000830152612f0e81612ed2565b9050919050565b600080fd5b600080fd5b600073ffffffffffffffffffffffffffffffffffffffff82169050919050565b6000612f4a82612f1f565b9050919050565b612f5a81612f3f565b8114612f6557600080fd5b50565b600081359050612f7781612f51565b92915050565b600060208284031215612f9357612f92612f15565b5b6000612fa184828501612f68565b91505092915050565b6000819050919050565b612fbd81612faa565b8114612fc857600080fd5b50565b600081359050612fda81612fb4565b92915050565b600060208284031215612ff657612ff5612f15565b5b600061300484828501612fcb565b91505092915050565b61301681612faa565b82525050565b6000602082019050613031600083018461300d565b92915050565b60008115159050919050565b61304c81613037565b82525050565b60006020820190506130676000830184613043565b92915050565b6000806040838503121561308457613083612f15565b5b600061309285828601612f68565b92505060206130a385828601612fcb565b9150509250929050565b6130b681612f3f565b82525050565b600060e0820190506130d1600083018a61300d565b6130de602083018961300d565b6130eb604083018861300d565b6130f8606083018761300d565b613105608083018661300d565b61311260a083018561300d565b61311f60c08301846130ad565b98975050505050505050565b600081519050919050565b60005b83811015613154578082015181840152602081019050613139565b83811115613163576000848401525b50505050565b6000601f19601f8301169050919050565b60006131858261312b565b61318f8185612e98565b935061319f818560208601613136565b6131a881613169565b840191505092915050565b600061ffff82169050919050565b6131ca816131b3565b82525050565b600060c0820190506131e56000830189613043565b81810360208301526131f7818861317a565b905061320660408301876130ad565b61321360608301866131c1565b61322060808301856131c1565b61322d60a08301846131c1565b979650505050505050565b600080600080600080600060e0888a03121561325757613256612f15565b5b60006132658a828b01612fcb565b97505060206132768a828b01612fcb565b96505060406132878a828b01612fcb565b95505060606132988a828b01612fcb565b94505060806132a98a828b01612fcb565b93505060a06132ba8a828b01612fcb565b92505060c06132cb8a828b01612f68565b91505092959891949750929550565b600080604083850312156132f1576132f0612f15565b5b60006132ff85828601612fcb565b925050602061331085828601612f68565b9150509250929050565b600060208201905061332f60008301846131c1565b92915050565b6000806040838503121561334c5761334b612f15565b5b600061335a85828601612fcb565b925050602061336b85828601612fcb565b9150509250929050565b600080600080600060a0868803121561339157613390612f15565b5b600061339f88828901612fcb565b95505060206133b088828901612fcb565b94505060406133c188828901612fcb565b93505060606133d288828901612fcb565b92505060806133e388828901612f68565b9150509295509295909350565b600081519050919050565b600082825260208201905092915050565b6000819050602082019050919050565b61342581612faa565b82525050565b61343481612f3f565b82525050565b60e082016000820151613450600085018261341c565b506020820151613463602085018261341c565b506040820151613476604085018261341c565b506060820151613489606085018261341c565b50608082015161349c608085018261341c565b5060a08201516134af60a085018261341c565b5060c08201516134c260c085018261342b565b50505050565b60006134d4838361343a565b60e08301905092915050565b6000602082019050919050565b60006134f8826133f0565b61350281856133fb565b935061350d8361340c565b8060005b8381101561353e57815161352588826134c8565b9750613530836134e0565b925050600181019050613511565b5085935050505092915050565b6000602082019050818103600083015261356581846134ed565b905092915050565b600060208201905061358260008301846130ad565b92915050565b600080fd5b600080fd5b600080fd5b60008083601f8401126135ad576135ac613588565b5b8235905067ffffffffffffffff8111156135ca576135c961358d565b5b6020830191508360018202830111156135e6576135e5613592565b5b9250929050565b6135f681613037565b811461360157600080fd5b50565b600081359050613613816135ed565b92915050565b613622816131b3565b811461362d57600080fd5b50565b60008135905061363f81613619565b92915050565b60008060008060008060008060e0898b03121561366557613664612f15565b5b60006136738b828c01612fcb565b985050602089013567ffffffffffffffff81111561369457613693612f1a565b5b6136a08b828c01613597565b975097505060406136b38b828c01612f68565b95505060606136c48b828c01613604565b94505060806136d58b828c01613630565b93505060a06136e68b828c01613630565b92505060c06136f78b828c01613630565b9150509295985092959890939650565b600060ff82169050919050565b61371d81613707565b811461372857600080fd5b50565b60008135905061373a81613714565b92915050565b6000806040838503121561375757613756612f15565b5b60006137658582860161372b565b925050602061377685828601612f68565b9150509250929050565b600060a082019050613795600083018861300d565b6137a2602083018761300d565b6137af604083018661300d565b6137bc606083018561300d565b6137c9608083018461300d565b9695505050505050565b6000806000606084860312156137ec576137eb612f15565b5b60006137fa86828701612fcb565b935050602061380b86828701612fcb565b925050604061381c86828701612fcb565b9150509250925092565b60008060006060848603121561383f5761383e612f15565b5b600061384d86828701612fcb565b935050602061385e86828701612f68565b925050604061386f86828701612fcb565b9150509250925092565b7f4e487b7100000000000000000000000000000000000000000000000000000000600052601160045260246000fd5b60006138b382612faa565b91507fffffffffffffffffffffffffffffffffffffffffffffffffffffffffffffffff8214156138e6576138e5613879565b5b600182019050919050565b600060408201905061390660008301856130ad565b613913602083018461300d565b9392505050565b600081519050613929816135ed565b92915050565b60006020828403121561394557613944612f15565b5b60006139538482850161391a565b91505092915050565b7f4e487b7100000000000000000000000000000000000000000000000000000000600052602260045260246000fd5b600060028204905060018216806139a357607f821691505b602082108114156139b7576139b661395c565b5b50919050565b7f496e76616c696420706f6f6c2049640000000000000000000000000000000000600082015250565b60006139f3600f83612e98565b91506139fe826139bd565b602082019050919050565b60006020820190508181036000830152613a22816139e6565b9050919050565b7f4e487b7100000000000000000000000000000000000000000000000000000000600052603260045260246000fd5b7f596f7520646f6e2774206861766520656e6f7567682066756e64730000000000600082015250565b6000613a8e601b83612e98565b9150613a9982613a58565b602082019050919050565b60006020820190508181036000830152613abd81613a81565b9050919050565b7f5374616b65207374696c6c20696e206c6f636b65642073746174650000000000600082015250565b6000613afa601b83612e98565b9150613b0582613ac4565b602082019050919050565b60006020820190508181036000830152613b2981613aed565b9050919050565b6000604082019050613b45600083018561300d565b613b52602083018461300d565b9392505050565b7f526577617264207374696c6c20696e206c6f636b656420737461746500000000600082015250565b6000613b8f601c83612e98565b9150613b9a82613b59565b602082019050919050565b60006020820190508181036000830152613bbe81613b82565b9050919050565b6000613bd082612faa565b9150613bdb83612faa565b925082821015613bee57613bed613879565b5b828203905092915050565b6000604082019050613c0e60008301856130ad565b613c1b60208301846130ad565b9392505050565b600081519050613c3181612fb4565b92915050565b600060208284031215613c4d57613c4c612f15565b5b6000613c5b84828501613c22565b91505092915050565b7f4465637562617465203a2053657420616c6c6f77616e63652066697273742100600082015250565b6000613c9a601f83612e98565b9150613ca582613c64565b602082019050919050565b60006020820190508181036000830152613cc981613c8d565b9050919050565b6000606082019050613ce560008301866130ad565b613cf260208301856130ad565b613cff604083018461300d565b949350505050565b7f4465637562617465203a205472616e73666572206661696c6564000000000000600082015250565b6000613d3d601a83612e98565b9150613d4882613d07565b602082019050919050565b60006020820190508181036000830152613d6c81613d30565b9050919050565b6000613d7e82612faa565b9150613d8983612faa565b9250817fffffffffffffffffffffffffffffffffffffffffffffffffffffffffffffffff0483118215151615613dc257613dc1613879565b5b828202905092915050565b7f4e487b7100000000000000000000000000000000000000000000000000000000600052601260045260246000fd5b6000613e0782612faa565b9150613e1283612faa565b925082613e2257613e21613dcd565b5b828204905092915050565b7f4f776e61626c653a206e6577206f776e657220697320746865207a65726f206160008201527f6464726573730000000000000000000000000000000000000000000000000000602082015250565b6000613e89602683612e98565b9150613e9482613e2d565b604082019050919050565b60006020820190508181036000830152613eb881613e7c565b9050919050565b7f4f6e6c7920666f7220636f6d706f756e64657200000000000000000000000000600082015250565b6000613ef5601383612e98565b9150613f0082613ebf565b602082019050919050565b60006020820190508181036000830152613f2481613ee8565b9050919050565b7f4f776e61626c653a2063616c6c6572206973206e6f7420746865206f776e6572600082015250565b6000613f61602083612e98565b9150613f6c82613f2b565b602082019050919050565b60006020820190508181036000830152613f9081613f54565b9050919050565b6000613fa282612faa565b9150613fad83612faa565b9250827fffffffffffffffffffffffffffffffffffffffffffffffffffffffffffffffff03821115613fe257613fe1613879565b5b828201905092915050565b7f64732d6d6174682d6164642d6f766572666c6f77000000000000000000000000600082015250565b6000614023601483612e98565b915061402e82613fed565b602082019050919050565b6000602082019050818103600083015261405281614016565b9050919050565b7f4e6f7420656e6f7567682066756e647320696e20747265617375727900000000600082015250565b600061408f601c83612e98565b915061409a82614059565b602082019050919050565b600060208201905081810360008301526140be81614082565b9050919050565b7f506f6f6c2069732066756c6c0000000000000000000000000000000000000000600082015250565b60006140fb600c83612e98565b9150614106826140c5565b602082019050919050565b6000602082019050818103600083015261412a816140ee565b9050919050565b7f5374616b696e672069732064697361626c656420666f72207468697320706f6f60008201527f6c00000000000000000000000000000000000000000000000000000000000000602082015250565b600061418d602183612e98565b915061419882614131565b604082019050919050565b600060208201905081810360008301526141bc81614180565b9050919050565b7f4e487b7100000000000000000000000000000000000000000000000000000000600052604160045260246000fd5b60006141fd82612faa565b915061420883612faa565b92508261421857614217613dcd565b5b828206905092915050565b7f64732d6d6174682d6d756c2d6f766572666c6f77000000000000000000000000600082015250565b6000614259601483612e98565b915061426482614223565b602082019050919050565b600060208201905081810360008301526142888161424c565b905091905056fea2646970667358221220f7e21d6567d87680930e2bc213f51d0914a981d6722e51a54fcabc4b7cecd02e64736f6c634300080b0033",
  "linkReferences": {},
  "deployedLinkReferences": {}
}